{"abi":[{"type":"constructor","inputs":[{"name":"initialOwner","type":"address","internalType":"address"}],"stateMutability":"nonpayable"},{"type":"function","name":"getAverage","inputs":[{"name":"material","type":"uint8","internalType":"enum Material"}],"outputs":[{"name":"","type":"uint256","internalType":"uint256"}],"stateMutability":"view"},{"type":"function","name":"getHistoryEntry","inputs":[{"name":"material","type":"uint8","internalType":"enum Material"},{"name":"index","type":"uint256","internalType":"uint256"}],"outputs":[{"name":"","type":"tuple","internalType":"struct PriceHistoryEntry","components":[{"name":"referencePrices","type":"uint256[5]","internalType":"uint256[5]"},{"name":"average","type":"uint256","internalType":"uint256"},{"name":"timestamp","type":"uint256","internalType":"uint256"}]}],"stateMutability":"view"},{"type":"function","name":"getHistoryLength","inputs":[{"name":"material","type":"uint8","internalType":"enum Material"}],"outputs":[{"name":"","type":"uint256","internalType":"uint256"}],"stateMutability":"view"},{"type":"function","name":"getReferencePrices","inputs":[{"name":"material","type":"uint8","internalType":"enum Material"}],"outputs":[{"name":"","type":"uint256[5]","internalType":"uint256[5]"}],"stateMutability":"view"},{"type":"function","name":"owner","inputs":[],"outputs":[{"name":"","type":"address","internalType":"address"}],"stateMutability":"view"},{"type":"function","name":"renounceOwnership","inputs":[],"outputs":[],"stateMutability":"nonpayable"},{"type":"function","name":"setReferencePrices","inputs":[{"name":"material","type":"uint8","internalType":"enum Material"},{"name":"prices","type":"uint256[5]","internalType":"uint256[5]"}],"outputs":[],"stateMutability":"nonpayable"},{"type":"function","name":"transferOwnership","inputs":[{"name":"newOwner","type":"address","internalType":"address"}],"outputs":[],"stateMutability":"nonpayable"},{"type":"event","name":"OwnershipTransferred","inputs":[{"name":"previousOwner","type":"address","indexed":true,"internalType":"address"},{"name":"newOwner","type":"address","indexed":true,"internalType":"address"}],"anonymous":false},{"type":"event","name":"PricesUpdated","inputs":[{"name":"material","type":"uint8","indexed":true,"internalType":"enum Material"},{"name":"average","type":"uint256","indexed":false,"internalType":"uint256"},{"name":"updater","type":"address","indexed":true,"internalType":"address"}],"anonymous":false},{"type":"error","name":"OwnableInvalidOwner","inputs":[{"name":"owner","type":"address","internalType":"address"}]},{"type":"error","name":"OwnableUnauthorizedAccount","inputs":[{"name":"account","type":"address","internalType":"address"}]}],"bytecode":{"object":"0x6080604052348015600e575f5ffd5b5060405161094b38038061094b833981016040819052602b9160b4565b806001600160a01b038116605857604051631e4fbdf760e01b81525f600482015260240160405180910390fd5b605f816065565b505060df565b5f80546001600160a01b038381166001600160a01b0319831681178455604051919092169283917f8be0079c531659141344cd1fd0a4f28419497f9722a3daafe3b4186f6b6457e09190a35050565b5f6020828403121560c3575f5ffd5b81516001600160a01b038116811460d8575f5ffd5b9392505050565b61085f806100ec5f395ff3fe608060405234801561000f575f5ffd5b5060043610610085575f3560e01c8063715018a611610058578063715018a6146101065780638da5cb5b14610110578063a9df87b11461012a578063f2fde38b1461013d575f5ffd5b8063012d8b7b14610089578063103a24f5146100b257806318325aee146100d3578063262e35bb146100e6575b5f5ffd5b61009c61009736600461068e565b610150565b6040516100a991906106ae565b60405180910390f35b6100c56100c036600461068e565b6101bf565b6040519081526020016100a9565b6100c56100e136600461068e565b610271565b6100f96100f43660046106de565b6102ae565b6040516100a99190610706565b61010e61035f565b005b5f546040516001600160a01b0390911681526020016100a9565b61010e61013836600461074b565b610372565b61010e61014b366004610782565b6104fb565b6101586105b8565b60025f83600481111561016d5761016d6107a8565b600481111561017e5761017e6107a8565b8152602081019190915260409081015f20815160a08101928390529160059082845b8154815260200190600101908083116101a05750505050509050919050565b5f5f60015f8460048111156101d6576101d66107a8565b60048111156101e7576101e76107a8565b81526020019081526020015f20805490509050805f0361020957505f92915050565b60015f84600481111561021e5761021e6107a8565b600481111561022f5761022f6107a8565b81526020019081526020015f2060018261024991906107d0565b81548110610259576102596107e3565b905f5260205f20906007020160050154915050919050565b5f60015f836004811115610287576102876107a8565b6004811115610298576102986107a8565b815260208101919091526040015f205492915050565b6102b66105d6565b60015f8460048111156102cb576102cb6107a8565b60048111156102dc576102dc6107a8565b81526020019081526020015f2082815481106102fa576102fa6107e3565b5f9182526020909120604080516101008101909152916007020181606081018260058282826020028201915b81548152602001906001019080831161032657505050505081526020016005820154815260200160068201548152505090505b92915050565b61036761053d565b6103705f610569565b565b61037a61053d565b5f600560808301356060840135604085013561039b602087013587356107f7565b6103a591906107f7565b6103af91906107f7565b6103b991906107f7565b6103c3919061080a565b90508160025f8560048111156103db576103db6107a8565b60048111156103ec576103ec6107a8565b815260208101919091526040015f206104069160056105fb565b5060015f84600481111561041c5761041c6107a8565b600481111561042d5761042d6107a8565b8152602081019190915260409081015f2081516101008101909252908060608101856005828260a0808284375f92018290525092845250506020808301869052426040909301929092528354600181018555938152208151919260070201906104999082906005610639565b5060208201516005820155604090910151600690910155338360048111156104c3576104c36107a8565b6040518381527f69a1bc995747cf0043d157bea7ae7628035497749dbcbeee250010b712be7e2e9060200160405180910390a3505050565b61050361053d565b6001600160a01b03811661053157604051631e4fbdf760e01b81525f60048201526024015b60405180910390fd5b61053a81610569565b50565b5f546001600160a01b031633146103705760405163118cdaa760e01b8152336004820152602401610528565b5f80546001600160a01b038381166001600160a01b0319831681178455604051919092169283917f8be0079c531659141344cd1fd0a4f28419497f9722a3daafe3b4186f6b6457e09190a35050565b6040518060a001604052806005906020820280368337509192915050565b60405180606001604052806105e96105b8565b81526020015f81526020015f81525090565b8260058101928215610629579160200282015b8281111561062957823582559160200191906001019061060e565b50610635929150610667565b5090565b8260058101928215610629579160200282015b8281111561062957825182559160200191906001019061064c565b5b80821115610635575f8155600101610668565b803560058110610689575f5ffd5b919050565b5f6020828403121561069e575f5ffd5b6106a78261067b565b9392505050565b60a0810181835f5b60058110156106d55781518352602092830192909101906001016106b6565b50505092915050565b5f5f604083850312156106ef575f5ffd5b6106f88361067b565b946020939093013593505050565b815160e0820190825f5b600581101561072f578251825260209283019290910190600101610710565b505050602083015160a083015260409092015160c09091015290565b5f5f60c0838503121561075c575f5ffd5b6107658361067b565b91508360c084011115610776575f5ffd5b50926020919091019150565b5f60208284031215610792575f5ffd5b81356001600160a01b03811681146106a7575f5ffd5b634e487b7160e01b5f52602160045260245ffd5b634e487b7160e01b5f52601160045260245ffd5b81810381811115610359576103596107bc565b634e487b7160e01b5f52603260045260245ffd5b80820180821115610359576103596107bc565b5f8261082457634e487b7160e01b5f52601260045260245ffd5b50049056fea26469706673582212204bbcea0fa8eaea5551a0edc54015ff0cd5076530ebbeff9893d49f02cfcb329464736f6c634300081e0033","linkReferences":{}},"methodIdentifiers":{"getAverage(uint8)":"103a24f5","getHistoryEntry(uint8,uint256)":"262e35bb","getHistoryLength(uint8)":"18325aee","getReferencePrices(uint8)":"012d8b7b","owner()":"8da5cb5b","renounceOwnership()":"715018a6","setReferencePrices(uint8,uint256[5])":"a9df87b1","transferOwnership(address)":"f2fde38b"},"id":20}